{
  "_format": "hh-sol-artifact-1",
  "contractName": "CommunaToken",
  "sourceName": "contracts/CommunaToken.sol",
  "abi": [
    {
      "inputs": [],
      "stateMutability": "nonpayable",
      "type": "constructor"
    },
    {
      "anonymous": false,
      "inputs": [
        {
          "indexed": true,
          "internalType": "address",
          "name": "owner",
          "type": "address"
        },
        {
          "indexed": true,
          "internalType": "address",
          "name": "spender",
          "type": "address"
        },
        {
          "indexed": false,
          "internalType": "uint256",
          "name": "value",
          "type": "uint256"
        }
      ],
      "name": "Approval",
      "type": "event"
    },
    {
      "anonymous": false,
      "inputs": [
        {
          "indexed": true,
          "internalType": "bytes32",
          "name": "role",
          "type": "bytes32"
        },
        {
          "indexed": true,
          "internalType": "bytes32",
          "name": "previousAdminRole",
          "type": "bytes32"
        },
        {
          "indexed": true,
          "internalType": "bytes32",
          "name": "newAdminRole",
          "type": "bytes32"
        }
      ],
      "name": "RoleAdminChanged",
      "type": "event"
    },
    {
      "anonymous": false,
      "inputs": [
        {
          "indexed": true,
          "internalType": "bytes32",
          "name": "role",
          "type": "bytes32"
        },
        {
          "indexed": true,
          "internalType": "address",
          "name": "account",
          "type": "address"
        },
        {
          "indexed": true,
          "internalType": "address",
          "name": "sender",
          "type": "address"
        }
      ],
      "name": "RoleGranted",
      "type": "event"
    },
    {
      "anonymous": false,
      "inputs": [
        {
          "indexed": true,
          "internalType": "bytes32",
          "name": "role",
          "type": "bytes32"
        },
        {
          "indexed": true,
          "internalType": "address",
          "name": "account",
          "type": "address"
        },
        {
          "indexed": true,
          "internalType": "address",
          "name": "sender",
          "type": "address"
        }
      ],
      "name": "RoleRevoked",
      "type": "event"
    },
    {
      "anonymous": false,
      "inputs": [
        {
          "indexed": true,
          "internalType": "address",
          "name": "from",
          "type": "address"
        },
        {
          "indexed": true,
          "internalType": "address",
          "name": "to",
          "type": "address"
        },
        {
          "indexed": false,
          "internalType": "uint256",
          "name": "value",
          "type": "uint256"
        }
      ],
      "name": "Transfer",
      "type": "event"
    },
    {
      "inputs": [],
      "name": "DEFAULT_ADMIN_ROLE",
      "outputs": [
        {
          "internalType": "bytes32",
          "name": "",
          "type": "bytes32"
        }
      ],
      "stateMutability": "view",
      "type": "function"
    },
    {
      "inputs": [],
      "name": "MINTER_ROLE",
      "outputs": [
        {
          "internalType": "bytes32",
          "name": "",
          "type": "bytes32"
        }
      ],
      "stateMutability": "view",
      "type": "function"
    },
    {
      "inputs": [],
      "name": "airdrop",
      "outputs": [],
      "stateMutability": "nonpayable",
      "type": "function"
    },
    {
      "inputs": [
        {
          "internalType": "address",
          "name": "owner",
          "type": "address"
        },
        {
          "internalType": "address",
          "name": "spender",
          "type": "address"
        }
      ],
      "name": "allowance",
      "outputs": [
        {
          "internalType": "uint256",
          "name": "",
          "type": "uint256"
        }
      ],
      "stateMutability": "view",
      "type": "function"
    },
    {
      "inputs": [
        {
          "internalType": "address",
          "name": "spender",
          "type": "address"
        },
        {
          "internalType": "uint256",
          "name": "amount",
          "type": "uint256"
        }
      ],
      "name": "approve",
      "outputs": [
        {
          "internalType": "bool",
          "name": "",
          "type": "bool"
        }
      ],
      "stateMutability": "nonpayable",
      "type": "function"
    },
    {
      "inputs": [
        {
          "internalType": "address",
          "name": "account",
          "type": "address"
        }
      ],
      "name": "balanceOf",
      "outputs": [
        {
          "internalType": "uint256",
          "name": "",
          "type": "uint256"
        }
      ],
      "stateMutability": "view",
      "type": "function"
    },
    {
      "inputs": [],
      "name": "decimals",
      "outputs": [
        {
          "internalType": "uint8",
          "name": "",
          "type": "uint8"
        }
      ],
      "stateMutability": "view",
      "type": "function"
    },
    {
      "inputs": [
        {
          "internalType": "address",
          "name": "spender",
          "type": "address"
        },
        {
          "internalType": "uint256",
          "name": "subtractedValue",
          "type": "uint256"
        }
      ],
      "name": "decreaseAllowance",
      "outputs": [
        {
          "internalType": "bool",
          "name": "",
          "type": "bool"
        }
      ],
      "stateMutability": "nonpayable",
      "type": "function"
    },
    {
      "inputs": [
        {
          "internalType": "bytes32",
          "name": "role",
          "type": "bytes32"
        }
      ],
      "name": "getRoleAdmin",
      "outputs": [
        {
          "internalType": "bytes32",
          "name": "",
          "type": "bytes32"
        }
      ],
      "stateMutability": "view",
      "type": "function"
    },
    {
      "inputs": [
        {
          "internalType": "bytes32",
          "name": "role",
          "type": "bytes32"
        },
        {
          "internalType": "address",
          "name": "account",
          "type": "address"
        }
      ],
      "name": "grantRole",
      "outputs": [],
      "stateMutability": "nonpayable",
      "type": "function"
    },
    {
      "inputs": [
        {
          "internalType": "bytes32",
          "name": "role",
          "type": "bytes32"
        },
        {
          "internalType": "address",
          "name": "account",
          "type": "address"
        }
      ],
      "name": "hasRole",
      "outputs": [
        {
          "internalType": "bool",
          "name": "",
          "type": "bool"
        }
      ],
      "stateMutability": "view",
      "type": "function"
    },
    {
      "inputs": [
        {
          "internalType": "address",
          "name": "spender",
          "type": "address"
        },
        {
          "internalType": "uint256",
          "name": "addedValue",
          "type": "uint256"
        }
      ],
      "name": "increaseAllowance",
      "outputs": [
        {
          "internalType": "bool",
          "name": "",
          "type": "bool"
        }
      ],
      "stateMutability": "nonpayable",
      "type": "function"
    },
    {
      "inputs": [
        {
          "internalType": "address",
          "name": "to",
          "type": "address"
        },
        {
          "internalType": "uint256",
          "name": "amount",
          "type": "uint256"
        }
      ],
      "name": "mint",
      "outputs": [],
      "stateMutability": "nonpayable",
      "type": "function"
    },
    {
      "inputs": [],
      "name": "name",
      "outputs": [
        {
          "internalType": "string",
          "name": "",
          "type": "string"
        }
      ],
      "stateMutability": "view",
      "type": "function"
    },
    {
      "inputs": [
        {
          "internalType": "bytes32",
          "name": "role",
          "type": "bytes32"
        },
        {
          "internalType": "address",
          "name": "account",
          "type": "address"
        }
      ],
      "name": "renounceRole",
      "outputs": [],
      "stateMutability": "nonpayable",
      "type": "function"
    },
    {
      "inputs": [
        {
          "internalType": "bytes32",
          "name": "role",
          "type": "bytes32"
        },
        {
          "internalType": "address",
          "name": "account",
          "type": "address"
        }
      ],
      "name": "revokeRole",
      "outputs": [],
      "stateMutability": "nonpayable",
      "type": "function"
    },
    {
      "inputs": [
        {
          "internalType": "bytes4",
          "name": "interfaceId",
          "type": "bytes4"
        }
      ],
      "name": "supportsInterface",
      "outputs": [
        {
          "internalType": "bool",
          "name": "",
          "type": "bool"
        }
      ],
      "stateMutability": "view",
      "type": "function"
    },
    {
      "inputs": [],
      "name": "symbol",
      "outputs": [
        {
          "internalType": "string",
          "name": "",
          "type": "string"
        }
      ],
      "stateMutability": "view",
      "type": "function"
    },
    {
      "inputs": [],
      "name": "totalSupply",
      "outputs": [
        {
          "internalType": "uint256",
          "name": "",
          "type": "uint256"
        }
      ],
      "stateMutability": "view",
      "type": "function"
    },
    {
      "inputs": [
        {
          "internalType": "address",
          "name": "to",
          "type": "address"
        },
        {
          "internalType": "uint256",
          "name": "amount",
          "type": "uint256"
        }
      ],
      "name": "transfer",
      "outputs": [
        {
          "internalType": "bool",
          "name": "",
          "type": "bool"
        }
      ],
      "stateMutability": "nonpayable",
      "type": "function"
    },
    {
      "inputs": [
        {
          "internalType": "address",
          "name": "from",
          "type": "address"
        },
        {
          "internalType": "address",
          "name": "to",
          "type": "address"
        },
        {
          "internalType": "uint256",
          "name": "amount",
          "type": "uint256"
        }
      ],
      "name": "transferFrom",
      "outputs": [
        {
          "internalType": "bool",
          "name": "",
          "type": "bool"
        }
      ],
      "stateMutability": "nonpayable",
      "type": "function"
    }
  ],
  "bytecode": "0x60806040523480156200001157600080fd5b506040518060400160405280600f81526020017f436f6d6d756e61204e6574776f726b00000000000000000000000000000000008152506040518060400160405280600481526020017f434f4d4d000000000000000000000000000000000000000000000000000000008152508160039080519060200190620000969291906200027a565b508060049080519060200190620000af9291906200027a565b505050620000c76000801b33620000ff60201b60201c565b620000f97f9f2df0fed2c77648de5860a4cc508cd0818c85b8b8a1ab4ceeef8d981c8956a633620000ff60201b60201c565b6200038f565b6200011182826200011560201b60201c565b5050565b6200012782826200020760201b60201c565b620002035760016005600084815260200190815260200160002060000160008373ffffffffffffffffffffffffffffffffffffffff1673ffffffffffffffffffffffffffffffffffffffff16815260200190815260200160002060006101000a81548160ff021916908315150217905550620001a86200027260201b60201c565b73ffffffffffffffffffffffffffffffffffffffff168173ffffffffffffffffffffffffffffffffffffffff16837f2f8788117e7eff1d82e926ec794901d17c78024a50270940304540a733656f0d60405160405180910390a45b5050565b60006005600084815260200190815260200160002060000160008373ffffffffffffffffffffffffffffffffffffffff1673ffffffffffffffffffffffffffffffffffffffff16815260200190815260200160002060009054906101000a900460ff16905092915050565b600033905090565b82805462000288906200032a565b90600052602060002090601f016020900481019282620002ac5760008555620002f8565b82601f10620002c757805160ff1916838001178555620002f8565b82800160010185558215620002f8579182015b82811115620002f7578251825591602001919060010190620002da565b5b5090506200030791906200030b565b5090565b5b80821115620003265760008160009055506001016200030c565b5090565b600060028204905060018216806200034357607f821691505b602082108114156200035a576200035962000360565b5b50919050565b7f4e487b7100000000000000000000000000000000000000000000000000000000600052602260045260246000fd5b612296806200039f6000396000f3fe608060405234801561001057600080fd5b50600436106101375760003560e01c806339509351116100b8578063a217fddf1161007c578063a217fddf14610362578063a457c2d714610380578063a9059cbb146103b0578063d5391393146103e0578063d547741f146103fe578063dd62ed3e1461041a57610137565b8063395093511461029857806340c10f19146102c857806370a08231146102e457806391d148541461031457806395d89b411461034457610137565b8063248a9ca3116100ff578063248a9ca3146102085780632f2ff15d14610238578063313ce5671461025457806336568abe146102725780633884d6351461028e57610137565b806301ffc9a71461013c57806306fdde031461016c578063095ea7b31461018a57806318160ddd146101ba57806323b872dd146101d8575b600080fd5b610156600480360381019061015191906117c7565b61044a565b6040516101639190611a97565b60405180910390f35b6101746104c4565b6040516101819190611acd565b60405180910390f35b6101a4600480360381019061019f9190611726565b610556565b6040516101b19190611a97565b60405180910390f35b6101c2610579565b6040516101cf9190611c4f565b60405180910390f35b6101f260048036038101906101ed91906116d7565b610583565b6040516101ff9190611a97565b60405180910390f35b610222600480360381019061021d9190611762565b6105b2565b60405161022f9190611ab2565b60405180910390f35b610252600480360381019061024d919061178b565b6105d2565b005b61025c6105f3565b6040516102699190611c6a565b60405180910390f35b61028c6004803603810190610287919061178b565b6105fc565b005b61029661067f565b005b6102b260048036038101906102ad9190611726565b610699565b6040516102bf9190611a97565b60405180910390f35b6102e260048036038101906102dd9190611726565b6106d0565b005b6102fe60048036038101906102f99190611672565b610747565b60405161030b9190611c4f565b60405180910390f35b61032e6004803603810190610329919061178b565b61078f565b60405161033b9190611a97565b60405180910390f35b61034c6107fa565b6040516103599190611acd565b60405180910390f35b61036a61088c565b6040516103779190611ab2565b60405180910390f35b61039a60048036038101906103959190611726565b610893565b6040516103a79190611a97565b60405180910390f35b6103ca60048036038101906103c59190611726565b61090a565b6040516103d79190611a97565b60405180910390f35b6103e861092d565b6040516103f59190611ab2565b60405180910390f35b6104186004803603810190610413919061178b565b610951565b005b610434600480360381019061042f919061169b565b610972565b6040516104419190611c4f565b60405180910390f35b60007f7965db0b000000000000000000000000000000000000000000000000000000007bffffffffffffffffffffffffffffffffffffffffffffffffffffffff1916827bffffffffffffffffffffffffffffffffffffffffffffffffffffffff191614806104bd57506104bc826109f9565b5b9050919050565b6060600380546104d390611e44565b80601f01602080910402602001604051908101604052809291908181526020018280546104ff90611e44565b801561054c5780601f106105215761010080835404028352916020019161054c565b820191906000526020600020905b81548152906001019060200180831161052f57829003601f168201915b5050505050905090565b600080610561610a63565b905061056e818585610a6b565b600191505092915050565b6000600254905090565b60008061058e610a63565b905061059b858285610c36565b6105a6858585610cc2565b60019150509392505050565b600060056000838152602001908152602001600020600101549050919050565b6105db826105b2565b6105e481610f3a565b6105ee8383610f4e565b505050565b60006012905090565b610604610a63565b73ffffffffffffffffffffffffffffffffffffffff168173ffffffffffffffffffffffffffffffffffffffff1614610671576040517f08c379a000000000000000000000000000000000000000000000000000000000815260040161066890611c0f565b60405180910390fd5b61067b828261102f565b5050565b6000678ac7230489e8000090506106963382611111565b50565b6000806106a4610a63565b90506106c58185856106b68589610972565b6106c09190611cac565b610a6b565b600191505092915050565b6106fa7f9f2df0fed2c77648de5860a4cc508cd0818c85b8b8a1ab4ceeef8d981c8956a63361078f565b610739576040517f08c379a000000000000000000000000000000000000000000000000000000000815260040161073090611b8f565b60405180910390fd5b6107438282611111565b5050565b60008060008373ffffffffffffffffffffffffffffffffffffffff1673ffffffffffffffffffffffffffffffffffffffff168152602001908152602001600020549050919050565b60006005600084815260200190815260200160002060000160008373ffffffffffffffffffffffffffffffffffffffff1673ffffffffffffffffffffffffffffffffffffffff16815260200190815260200160002060009054906101000a900460ff16905092915050565b60606004805461080990611e44565b80601f016020809104026020016040519081016040528092919081815260200182805461083590611e44565b80156108825780601f1061085757610100808354040283529160200191610882565b820191906000526020600020905b81548152906001019060200180831161086557829003601f168201915b5050505050905090565b6000801b81565b60008061089e610a63565b905060006108ac8286610972565b9050838110156108f1576040517f08c379a00000000000000000000000000000000000000000000000000000000081526004016108e890611bef565b60405180910390fd5b6108fe8286868403610a6b565b60019250505092915050565b600080610915610a63565b9050610922818585610cc2565b600191505092915050565b7f9f2df0fed2c77648de5860a4cc508cd0818c85b8b8a1ab4ceeef8d981c8956a681565b61095a826105b2565b61096381610f3a565b61096d838361102f565b505050565b6000600160008473ffffffffffffffffffffffffffffffffffffffff1673ffffffffffffffffffffffffffffffffffffffff16815260200190815260200160002060008373ffffffffffffffffffffffffffffffffffffffff1673ffffffffffffffffffffffffffffffffffffffff16815260200190815260200160002054905092915050565b60007f01ffc9a7000000000000000000000000000000000000000000000000000000007bffffffffffffffffffffffffffffffffffffffffffffffffffffffff1916827bffffffffffffffffffffffffffffffffffffffffffffffffffffffff1916149050919050565b600033905090565b600073ffffffffffffffffffffffffffffffffffffffff168373ffffffffffffffffffffffffffffffffffffffff161415610adb576040517f08c379a0000000000000000000000000000000000000000000000000000000008152600401610ad290611bcf565b60405180910390fd5b600073ffffffffffffffffffffffffffffffffffffffff168273ffffffffffffffffffffffffffffffffffffffff161415610b4b576040517f08c379a0000000000000000000000000000000000000000000000000000000008152600401610b4290611b2f565b60405180910390fd5b80600160008573ffffffffffffffffffffffffffffffffffffffff1673ffffffffffffffffffffffffffffffffffffffff16815260200190815260200160002060008473ffffffffffffffffffffffffffffffffffffffff1673ffffffffffffffffffffffffffffffffffffffff168152602001908152602001600020819055508173ffffffffffffffffffffffffffffffffffffffff168373ffffffffffffffffffffffffffffffffffffffff167f8c5be1e5ebec7d5bd14f71427d1e84f3dd0314c0f7b2291e5b200ac8c7c3b92583604051610c299190611c4f565b60405180910390a3505050565b6000610c428484610972565b90507fffffffffffffffffffffffffffffffffffffffffffffffffffffffffffffffff8114610cbc5781811015610cae576040517f08c379a0000000000000000000000000000000000000000000000000000000008152600401610ca590611b4f565b60405180910390fd5b610cbb8484848403610a6b565b5b50505050565b600073ffffffffffffffffffffffffffffffffffffffff168373ffffffffffffffffffffffffffffffffffffffff161415610d32576040517f08c379a0000000000000000000000000000000000000000000000000000000008152600401610d2990611baf565b60405180910390fd5b600073ffffffffffffffffffffffffffffffffffffffff168273ffffffffffffffffffffffffffffffffffffffff161415610da2576040517f08c379a0000000000000000000000000000000000000000000000000000000008152600401610d9990611b0f565b60405180910390fd5b610dad838383611268565b60008060008573ffffffffffffffffffffffffffffffffffffffff1673ffffffffffffffffffffffffffffffffffffffff16815260200190815260200160002054905081811015610e33576040517f08c379a0000000000000000000000000000000000000000000000000000000008152600401610e2a90611b6f565b60405180910390fd5b8181036000808673ffffffffffffffffffffffffffffffffffffffff1673ffffffffffffffffffffffffffffffffffffffff16815260200190815260200160002081905550816000808573ffffffffffffffffffffffffffffffffffffffff1673ffffffffffffffffffffffffffffffffffffffff168152602001908152602001600020600082825401925050819055508273ffffffffffffffffffffffffffffffffffffffff168473ffffffffffffffffffffffffffffffffffffffff167fddf252ad1be2c89b69c2b068fc378daa952ba7f163c4a11628f55a4df523b3ef84604051610f219190611c4f565b60405180910390a3610f3484848461126d565b50505050565b610f4b81610f46610a63565b611272565b50565b610f58828261078f565b61102b5760016005600084815260200190815260200160002060000160008373ffffffffffffffffffffffffffffffffffffffff1673ffffffffffffffffffffffffffffffffffffffff16815260200190815260200160002060006101000a81548160ff021916908315150217905550610fd0610a63565b73ffffffffffffffffffffffffffffffffffffffff168173ffffffffffffffffffffffffffffffffffffffff16837f2f8788117e7eff1d82e926ec794901d17c78024a50270940304540a733656f0d60405160405180910390a45b5050565b611039828261078f565b1561110d5760006005600084815260200190815260200160002060000160008373ffffffffffffffffffffffffffffffffffffffff1673ffffffffffffffffffffffffffffffffffffffff16815260200190815260200160002060006101000a81548160ff0219169083151502179055506110b2610a63565b73ffffffffffffffffffffffffffffffffffffffff168173ffffffffffffffffffffffffffffffffffffffff16837ff6391f5c32d9c69d2a47ea670b442974b53935d1edc7fd64eb21e047a839171b60405160405180910390a45b5050565b600073ffffffffffffffffffffffffffffffffffffffff168273ffffffffffffffffffffffffffffffffffffffff161415611181576040517f08c379a000000000000000000000000000000000000000000000000000000000815260040161117890611c2f565b60405180910390fd5b61118d60008383611268565b806002600082825461119f9190611cac565b92505081905550806000808473ffffffffffffffffffffffffffffffffffffffff1673ffffffffffffffffffffffffffffffffffffffff168152602001908152602001600020600082825401925050819055508173ffffffffffffffffffffffffffffffffffffffff16600073ffffffffffffffffffffffffffffffffffffffff167fddf252ad1be2c89b69c2b068fc378daa952ba7f163c4a11628f55a4df523b3ef836040516112509190611c4f565b60405180910390a36112646000838361126d565b5050565b505050565b505050565b61127c828261078f565b6112f357611289816112f7565b6112978360001c6020611324565b6040516020016112a8929190611a5d565b6040516020818303038152906040526040517f08c379a00000000000000000000000000000000000000000000000000000000081526004016112ea9190611acd565b60405180910390fd5b5050565b606061131d8273ffffffffffffffffffffffffffffffffffffffff16601460ff16611324565b9050919050565b6060600060028360026113379190611d02565b6113419190611cac565b67ffffffffffffffff811115611380577f4e487b7100000000000000000000000000000000000000000000000000000000600052604160045260246000fd5b6040519080825280601f01601f1916602001820160405280156113b25781602001600182028036833780820191505090505b5090507f300000000000000000000000000000000000000000000000000000000000000081600081518110611410577f4e487b7100000000000000000000000000000000000000000000000000000000600052603260045260246000fd5b60200101907effffffffffffffffffffffffffffffffffffffffffffffffffffffffffffff1916908160001a9053507f78000000000000000000000000000000000000000000000000000000000000008160018151811061149a577f4e487b7100000000000000000000000000000000000000000000000000000000600052603260045260246000fd5b60200101907effffffffffffffffffffffffffffffffffffffffffffffffffffffffffffff1916908160001a905350600060018460026114da9190611d02565b6114e49190611cac565b90505b60018111156115d0577f3031323334353637383961626364656600000000000000000000000000000000600f86166010811061154c577f4e487b7100000000000000000000000000000000000000000000000000000000600052603260045260246000fd5b1a60f81b828281518110611589577f4e487b7100000000000000000000000000000000000000000000000000000000600052603260045260246000fd5b60200101907effffffffffffffffffffffffffffffffffffffffffffffffffffffffffffff1916908160001a905350600485901c9450806115c990611e1a565b90506114e7565b5060008414611614576040517f08c379a000000000000000000000000000000000000000000000000000000000815260040161160b90611aef565b60405180910390fd5b8091505092915050565b60008135905061162d81612204565b92915050565b6000813590506116428161221b565b92915050565b60008135905061165781612232565b92915050565b60008135905061166c81612249565b92915050565b60006020828403121561168457600080fd5b60006116928482850161161e565b91505092915050565b600080604083850312156116ae57600080fd5b60006116bc8582860161161e565b92505060206116cd8582860161161e565b9150509250929050565b6000806000606084860312156116ec57600080fd5b60006116fa8682870161161e565b935050602061170b8682870161161e565b925050604061171c8682870161165d565b9150509250925092565b6000806040838503121561173957600080fd5b60006117478582860161161e565b92505060206117588582860161165d565b9150509250929050565b60006020828403121561177457600080fd5b600061178284828501611633565b91505092915050565b6000806040838503121561179e57600080fd5b60006117ac85828601611633565b92505060206117bd8582860161161e565b9150509250929050565b6000602082840312156117d957600080fd5b60006117e784828501611648565b91505092915050565b6117f981611d6e565b82525050565b61180881611d7a565b82525050565b600061181982611c85565b6118238185611c90565b9350611833818560208601611de7565b61183c81611ed4565b840191505092915050565b600061185282611c85565b61185c8185611ca1565b935061186c818560208601611de7565b80840191505092915050565b6000611885602083611c90565b915061189082611ee5565b602082019050919050565b60006118a8602383611c90565b91506118b382611f0e565b604082019050919050565b60006118cb602283611c90565b91506118d682611f5d565b604082019050919050565b60006118ee601d83611c90565b91506118f982611fac565b602082019050919050565b6000611911602683611c90565b915061191c82611fd5565b604082019050919050565b6000611934601483611c90565b915061193f82612024565b602082019050919050565b6000611957602583611c90565b91506119628261204d565b604082019050919050565b600061197a602483611c90565b91506119858261209c565b604082019050919050565b600061199d601783611ca1565b91506119a8826120eb565b601782019050919050565b60006119c0602583611c90565b91506119cb82612114565b604082019050919050565b60006119e3601183611ca1565b91506119ee82612163565b601182019050919050565b6000611a06602f83611c90565b9150611a118261218c565b604082019050919050565b6000611a29601f83611c90565b9150611a34826121db565b602082019050919050565b611a4881611dd0565b82525050565b611a5781611dda565b82525050565b6000611a6882611990565b9150611a748285611847565b9150611a7f826119d6565b9150611a8b8284611847565b91508190509392505050565b6000602082019050611aac60008301846117f0565b92915050565b6000602082019050611ac760008301846117ff565b92915050565b60006020820190508181036000830152611ae7818461180e565b905092915050565b60006020820190508181036000830152611b0881611878565b9050919050565b60006020820190508181036000830152611b288161189b565b9050919050565b60006020820190508181036000830152611b48816118be565b9050919050565b60006020820190508181036000830152611b68816118e1565b9050919050565b60006020820190508181036000830152611b8881611904565b9050919050565b60006020820190508181036000830152611ba881611927565b9050919050565b60006020820190508181036000830152611bc88161194a565b9050919050565b60006020820190508181036000830152611be88161196d565b9050919050565b60006020820190508181036000830152611c08816119b3565b9050919050565b60006020820190508181036000830152611c28816119f9565b9050919050565b60006020820190508181036000830152611c4881611a1c565b9050919050565b6000602082019050611c646000830184611a3f565b92915050565b6000602082019050611c7f6000830184611a4e565b92915050565b600081519050919050565b600082825260208201905092915050565b600081905092915050565b6000611cb782611dd0565b9150611cc283611dd0565b9250827fffffffffffffffffffffffffffffffffffffffffffffffffffffffffffffffff03821115611cf757611cf6611e76565b5b828201905092915050565b6000611d0d82611dd0565b9150611d1883611dd0565b9250817fffffffffffffffffffffffffffffffffffffffffffffffffffffffffffffffff0483118215151615611d5157611d50611e76565b5b828202905092915050565b6000611d6782611db0565b9050919050565b60008115159050919050565b6000819050919050565b60007fffffffff0000000000000000000000000000000000000000000000000000000082169050919050565b600073ffffffffffffffffffffffffffffffffffffffff82169050919050565b6000819050919050565b600060ff82169050919050565b60005b83811015611e05578082015181840152602081019050611dea565b83811115611e14576000848401525b50505050565b6000611e2582611dd0565b91506000821415611e3957611e38611e76565b5b600182039050919050565b60006002820490506001821680611e5c57607f821691505b60208210811415611e7057611e6f611ea5565b5b50919050565b7f4e487b7100000000000000000000000000000000000000000000000000000000600052601160045260246000fd5b7f4e487b7100000000000000000000000000000000000000000000000000000000600052602260045260246000fd5b6000601f19601f8301169050919050565b7f537472696e67733a20686578206c656e67746820696e73756666696369656e74600082015250565b7f45524332303a207472616e7366657220746f20746865207a65726f206164647260008201527f6573730000000000000000000000000000000000000000000000000000000000602082015250565b7f45524332303a20617070726f766520746f20746865207a65726f20616464726560008201527f7373000000000000000000000000000000000000000000000000000000000000602082015250565b7f45524332303a20696e73756666696369656e7420616c6c6f77616e6365000000600082015250565b7f45524332303a207472616e7366657220616d6f756e742065786365656473206260008201527f616c616e63650000000000000000000000000000000000000000000000000000602082015250565b7f4f6e6c79206d696e7465722063616e206d696e74000000000000000000000000600082015250565b7f45524332303a207472616e736665722066726f6d20746865207a65726f20616460008201527f6472657373000000000000000000000000000000000000000000000000000000602082015250565b7f45524332303a20617070726f76652066726f6d20746865207a65726f2061646460008201527f7265737300000000000000000000000000000000000000000000000000000000602082015250565b7f416363657373436f6e74726f6c3a206163636f756e7420000000000000000000600082015250565b7f45524332303a2064656372656173656420616c6c6f77616e63652062656c6f7760008201527f207a65726f000000000000000000000000000000000000000000000000000000602082015250565b7f206973206d697373696e6720726f6c6520000000000000000000000000000000600082015250565b7f416363657373436f6e74726f6c3a2063616e206f6e6c792072656e6f756e636560008201527f20726f6c657320666f722073656c660000000000000000000000000000000000602082015250565b7f45524332303a206d696e7420746f20746865207a65726f206164647265737300600082015250565b61220d81611d5c565b811461221857600080fd5b50565b61222481611d7a565b811461222f57600080fd5b50565b61223b81611d84565b811461224657600080fd5b50565b61225281611dd0565b811461225d57600080fd5b5056fea2646970667358221220a0b54bb70cd1f76bf1cbdffb16982821073d3547a1adaf8ff42aad93d4f69d1064736f6c63430008040033",
  "linkReferences": {},
  "deployedLinkReferences": {}
}