{
  "_format": "hh-sol-artifact-1",
  "contractName": "CommunaRouter",
  "sourceName": "contracts/CommunaRouter.sol",
  "abi": [
    {
      "inputs": [
        {
          "internalType": "address",
          "name": "_wallet",
          "type": "address"
        }
      ],
      "stateMutability": "nonpayable",
      "type": "constructor"
    },
    {
      "inputs": [
        {
          "internalType": "address",
          "name": "_to",
          "type": "address"
        },
        {
          "internalType": "address",
          "name": "_token",
          "type": "address"
        },
        {
          "internalType": "uint256",
          "name": "_amount",
          "type": "uint256"
        }
      ],
      "name": "pay",
      "outputs": [],
      "stateMutability": "payable",
      "type": "function"
    }
  ],
  "bytecode": "0x6080604052600560015534801561001557600080fd5b5060405161066838038061066883398181016040528101906100379190610092565b806000806101000a81548173ffffffffffffffffffffffffffffffffffffffff021916908373ffffffffffffffffffffffffffffffffffffffff16021790555050610104565b60008151905061008c816100ed565b92915050565b6000602082840312156100a457600080fd5b60006100b28482850161007d565b91505092915050565b60006100c6826100cd565b9050919050565b600073ffffffffffffffffffffffffffffffffffffffff82169050919050565b6100f6816100bb565b811461010157600080fd5b50565b610555806101136000396000f3fe60806040526004361061001e5760003560e01c8063b3d7618814610023575b600080fd5b61003d6004803603810190610038919061027f565b61003f565b005b8173ffffffffffffffffffffffffffffffffffffffff166323b872dd3330846040518463ffffffff1660e01b815260040161007c93929190610315565b602060405180830381600087803b15801561009657600080fd5b505af11580156100aa573d6000803e3d6000fd5b505050506040513d601f19601f820116820180604052508101906100ce91906102ce565b5060006064600154836100e191906103a6565b6100eb9190610375565b9050600081836100fb9190610400565b90508373ffffffffffffffffffffffffffffffffffffffff1663a9059cbb60008054906101000a900473ffffffffffffffffffffffffffffffffffffffff16846040518363ffffffff1660e01b815260040161015892919061034c565b602060405180830381600087803b15801561017257600080fd5b505af1158015610186573d6000803e3d6000fd5b505050506040513d601f19601f820116820180604052508101906101aa91906102ce565b508373ffffffffffffffffffffffffffffffffffffffff1663a9059cbb86836040518363ffffffff1660e01b81526004016101e692919061034c565b602060405180830381600087803b15801561020057600080fd5b505af1158015610214573d6000803e3d6000fd5b505050506040513d601f19601f8201168201806040525081019061023891906102ce565b505050505050565b60008135905061024f816104da565b92915050565b600081519050610264816104f1565b92915050565b60008135905061027981610508565b92915050565b60008060006060848603121561029457600080fd5b60006102a286828701610240565b93505060206102b386828701610240565b92505060406102c48682870161026a565b9150509250925092565b6000602082840312156102e057600080fd5b60006102ee84828501610255565b91505092915050565b61030081610434565b82525050565b61030f81610472565b82525050565b600060608201905061032a60008301866102f7565b61033760208301856102f7565b6103446040830184610306565b949350505050565b600060408201905061036160008301856102f7565b61036e6020830184610306565b9392505050565b600061038082610472565b915061038b83610472565b92508261039b5761039a6104ab565b5b828204905092915050565b60006103b182610472565b91506103bc83610472565b9250817fffffffffffffffffffffffffffffffffffffffffffffffffffffffffffffffff04831182151516156103f5576103f461047c565b5b828202905092915050565b600061040b82610472565b915061041683610472565b9250828210156104295761042861047c565b5b828203905092915050565b600061043f82610452565b9050919050565b60008115159050919050565b600073ffffffffffffffffffffffffffffffffffffffff82169050919050565b6000819050919050565b7f4e487b7100000000000000000000000000000000000000000000000000000000600052601160045260246000fd5b7f4e487b7100000000000000000000000000000000000000000000000000000000600052601260045260246000fd5b6104e381610434565b81146104ee57600080fd5b50565b6104fa81610446565b811461050557600080fd5b50565b61051181610472565b811461051c57600080fd5b5056fea26469706673582212207cd2fe659ef488e09d2870edecc8fcda2c876dcae7d8a6bfb3ec2ec3a9d8347364736f6c63430008040033",
  "linkReferences": {},
  "deployedLinkReferences": {}
}